:2000000012C02BC02AC029C028C027C026C025C024C024C022C021C020C01FC01EC01DC0B1
:200020001CC01BC01AC011241FBECFE5D4E0DEBFCDBF10E0A0E6B0E0ECEFFAE002C005907A
:200040000D92A236B107D9F710E0A2E6B0E001C01D92A736B107E1F759C1D2CF1F920F92AF
:200060000FB60F9211242F938F939F9381E982BF80916300909164000196909364008093FA
:2000800063008091630090916400883F910508F48EC080916300909164008B3F910508F00C
:2000A00086C012BA000000000000000000000000000000000000000000000000000000002E
:2000C000000000000000000000000000000000000000000000000000000000000000000020
:2000E000000000000000000000000000000000000000000000000000000000000000000000
:200100000000000000000000000000000000000000000000000000000000000000000000DF
:200120000000000087E082BB0000000000000000000000000000000000000000000000001B
:20014000000000000000000082BB0000000000000000000000000000000000000000000062
:2001600000000000000000000000000000000000000000000000000000000000000000007F
:200180000000000000000000000082BB000000000000000000000000000000000000000022
:2001A00000000000000000000000000076C087E082BB000000000000000000000000000065
:2001C00000000000000000000000000000000000000000000000000000000000000000001F
:2001E0000000000000000000000000000000000000000000000000000000000000000000FF
:200200000000000000000000000000000000000000000000000000000000000000000000DE
:2002200000000000000000000000000000000000000012BA000000000000000000000000F2
:20024000000000000000000000000000000000000000000086E082BB0000000000000000FB
:2002600000000000000000000000000000000000000000000000000000000000000000007E
:2002800000000000000000000000000000000000000000000000000012BA809163009091FD
:2002A00064008750914031F481E090E09093640080936300809163009091640080936500CE
:2002C000809165008E3160F0809165008E518093650080916500869586958695809365008D
:2002E00081E0809362009F918F912F910F900FBE0F901F901895882311F08150F1F70895AF
:200300009C01892F99278BBD2ABD0895C9E5D1E0DEBFCDBF10E0812E772473942224332496
:20032000412EFE01ED5FFC4F108211821282138279BE83E882BF82E083BF80E28BBD1ABD62
:200340008FB580648FBDB99A8EB589608EBD73BCBB9A89E185BD81B3876081BB012F46E181
:2003600050E0BE016F5F7F4F10E0202F3327812F9927849FF001859FF00D949FF00D11244F
:20038000CF01860F971FFC01E20FF31F10821F5F133268F30F5F063138F378945E010894BB
:2003A000A11CB11C80916200882309F436C180916300909164008E3D910509F02EC1E3E09C
:2003C000F3E0EC0FFD1FE40DF11D85B180834394F3E04F2247B83D9A86ED86B98394CB5F17
:2003E000DC4F8881C550D34082958F7099279C012F5F3F4F882D9927B90159D39C01882E64
:20040000CD5FDC4F8881C350D340982F92959F7080E1782E791A0F2EF2E16F2EF02D690E7E
:20042000CC5FDC4F9880C450D34086B39927847090709595879595958795582E222309F0EA
:20044000EAC0802F8F5F66E126D3092F122F0F2EF6E1CF2EDD24F02DEE24FF24E394EC0EC7
:20046000FD1E711608F08AC0161508F087C0552009F484C040E0812F99278C9D90018D9D04
:20048000300D9C9D300D1124C9018E0D9F1DFC01E00FF11D8689811144E0812F99278C9DFB
:2004A000B0018D9D700D9C9D700D1124CB018E0D9F1DFC01E00FF11D808181114260812FF7
:2004C00099278C9DF0018D9DF00D9C9DF00D1124CF018E0D9F1D800F911DFC017697808141
:2004E00081114160892D992702C0959587954A95E2F780FF2DC0802F6C2DCDD2212F332796
:200500002C9DA0012D9D500D3C9D500D11249A012E0D3F1DF901E90FF11D4081842F8F5F4B
:2005200065E0B9D2492F4F5F842F9927289EB001299E700D389E700D11241B01802F992784
:200540000196B601B4D2F901E80FF91F40835AC0802F99270196B601AAD2212F33272C9D35
:20056000F0012D9DF00D3C9DF00D11249F012E0D3F1DF901E80FF91F108244C0802F992773
:200580000196B60194D2212F33272C9DA0012D9D500D3C9D500D11249A012E0D3F1DF901D5
:2005A000E80FF91F1082552069F5052D66E170E041E050E04C0F5D1F10E0202F3327812F8D
:2005C0009927869FF001879FF00D969FF00D1124CF01840F951FFC01E20FF31F10821F5F94
:2005E000133268F30F5F063138F3802F99270196B6015DD28E0D9F1DFC01EA58FE4F81E05B
:20060000808300E01F5F123208F42BCF0894211C311CC10175DE10926200809162008823E2
:2006200009F431C280916300909164004F9708F42AC280916300909164008E3C910508F0B2
:2006400022C280916500F501E80FF11D808182BB0000000000000000000000008091650091
:20066000F501E80FF11D868982BB00000000000000000000000080916500F501E80FF11DC2
:2006800084A582BB000000000000000000000000809165009501280F311DF901EE5BFF4FD2
:2006A000808182BB00000000000000000000000080916500A501480F511DFA01E85AFF4F90
:2006C000808182BB00000000000000000000000080916500B501680F711DFB01E259FF4F26
:2006E000808182BB00000000000000000000000080916500F501E80FF11DEC57FF4F8081B9
:2007000082BB000000000000000000000000809165009501280F311DF901E656FF4F808186
:2007200082BB00000000000000000000000080916500A501480F511DFA01E055FF4F80811C
:2007400082BB00000000000000000000000080916500B501680F711DFB01EA53FF4F8081A3
:2007600082BB00000000000000000000000080916500F501E80FF11DE452FF4F808182BB09
:20078000000000000000000000000000809165009501280F311DF901EE50FF4F808182BB04
:2007A00000000000000000000000000080916500A501480F511DFA01E85FFE4F808182BB8B
:2007C00000000000000000000000000080916500B501680F711DFB01E25EFE4F808182BB21
:2007E00000000000000000000000000080916500F501E80FF11DEC5CFE4F808182BB0000B5
:2008000000000000000000000000809165009501280F311DF901E65BFE4F808182BB000081
:200820000000000000000000000080916500A501480F511DFA01E05AFE4F808182BB000017
:200840000000000000000000000080916500B501680F711DFB01EA58FE4F808182BB00009E
:200860000000000000000000000080916500F501E80FF11DE457FE4F808182BB0000000041
:200880000000000000000000809165009501280F311DF901EE55FE4F808182BB00000000FF
:2008A000000000000000000080916500A501480F511DFA01E854FE4F808182BB0000000095
:2008C000000000000000000080916500B501680F711DFB01E253FE4F808182BB000000002B
:2008E000000000000000000080916500F501E80FF11DEC51FE4F808182BB000000000000BF
:20090000000000000000809165009501280F311DF901E650FE4F808182BB0000000000008B
:2009200000000000000080916500A501480F511DFA01E05FFD4F808182BB00000000000012
:2009400000000000000080916500B501680F711DFB01EA5DFD4F808182BB00000000000099
:2009600000000000000080916500F501E80FF11DE45CFD4F808182BB00000000000000003C
:2009800000000000809165009501280F311DF901EE5AFD4F808182BB0000000000000000FA
:2009A0000000000080916500A501480F511DFA01E859FD4F808182BB000000000000000090
:2009C0000000000080916500B501680F711DFB01E258FD4F808182BB000000000000000026
:2009E0000000000080916500F501E80FF11DEC56FD4F808182BB00000000000000000000BA
:200A00000000809165009501280F311DF901E655FD4F808182BB0000000000000000000086
:200A2000000080916500A501480F511DFA01E054FD4F808182BB000000000000000000001C
:200A4000000080916500B501680F711DFB01EA52FD4F808182BB00000000000000000000A3
:200A6000000080916500F501E80FF11DE451FD4F808182BB00000000000000000000000046
:200A800012BA1092620085B7806885BF889585B78F7785BF87CC991B79E004C0991F9617F2
:200AA00008F0961B881F7A95C9F78095089597FB092E07260AD077FD04D00CD006D000207B
:200AC0001AF4709561957F4F0895F6F7909581959F4F0895AA1BBB1B51E107C0AA1FBB1FB8
:1E0AE000A617B70710F0A61BB70B881F991F5A95A9F780959095BC01CD0108950700A3
:00000001FF
